:020000040800F2
:10000000400B00207D010008750D0008470A00081C
:10001000710D000837070008EB1800080000000009
:10002000000000000000000000000000B113000804
:10003000E1080008000000003B010008B5150008B9
:100040009701000897010008970100089701000830
:100050009701000897010008970100089701000820
:100060009701000897010008970100089701000810
:100070009701000897010008970100089701000800
:1000800097010008970100089701000897010008F0
:1000900097010008970100089701000897010008E0
:1000A00097010008970100089701000897010008D0
:1000B00097010008970100089701000897010008C0
:1000C00097010008970100089701000897010008B0
:1000D000970100081D160008970100089701000805
:1000E000970100089701000897010008DFF810D079
:1000F00000F056FA00480047E5210008AFF3008001
:10010000400B0020084B19680868203080F30988EC
:10011000022080F31488BFF36F8F3FBCAE4608BC4B
:1001200004BC62B618470000FC040020EFF3108006
:1001300072B6704780F310887047EFF309800E4B5A
:100140001A6820381060F0C044464D4656465F4657
:10015000F0C008B572B602F0E1F862B60CBC1168E6
:1001600008681030F0C8A046A946B246BB4680F3E6
:1001700009882038F0C81847FC040020064880474A
:1001800006480047FEE7FEE7FEE7FEE7FEE7FEE77C
:10019000FEE7FEE7FEE7FEE7BD150008ED000008FC
:1001A00030B50B46014600202022012409E021FA47
:1001B00002F59D4205D303FA02F5491B04FA02F544
:1001C0002844151EA2F10102F1DC30BD2DE9F05FDB
:1001D0000546002092469B468846064681464024B6
:1001E0001BE0284641464746224600F0FAF95346AE
:1001F0005A46C01A914110D311461846224600F0C3
:10020000E1F92D1A67EB01084F4622460120002133
:1002100000F0D8F917EB00094E41201EA4F10104AB
:10022000DFDC484631462A464346BDE8F09F2DE9CB
:10023000FE4F804681EA0300C00F0C46009021F07B
:10024000004123F00045B8EB0200A94105D2404629
:10025000214690461C460B46024623F000401043C0
:1002600047D0270DC7F30A00C3F30A510290401A82
:10027000019040286BDAC3F3130040F4801B009810
:10028000924620B10023D2EB030A63EB0B0B0198DB
:100290005946C0F14002504600F094F906460D461A
:1002A00050465946019A00F0ACF910EB0800614144
:1002B000002487EA115284EAE7731A4340D0009A77
:1002C00062B3019A012A4FEA075215DC001B61EB69
:1002D00002014FF0004202EA0752CDE90042001C41
:1002E00041F5801132462B4600F0ACF903B0BDE871
:1002F000F08F40462146F9E7001B61EB0201001C2C
:1003000041F5801300185B412018A2F5001747EB58
:10031000030140EAD570B6196D4111E06D084FEA4E
:10032000360645EAC0754FEA0752001B61EB020131
:10033000001C41F5801149084FEA30000019514175
:1003400032462B4603B0BDE8F04F00F06CB9009880
:10035000012240000023D0EB020263EBE07300981F
:1003600021464FEAE074B8EB000061EB0401E9E7D5
:1003700083F000435BE781F0004158E72DE9FE4F31
:1003800081EA030404F0004421F0004100944FF09E
:10039000000B23F0004350EA01045ED052EA03044C
:1003A0005BD0C3F30A54C1F30A552C44A4F2F334CE
:1003B0000194A0FB0254C1F3130141F48011C3F373
:1003C000130343F4801301FB024400FB034E840A31
:1003D000970A44EA815447EA8357A4FB07680295C9
:1003E0008D0A05FB07854FEA932C04FB0C54270567
:1003F000029D4FEA065847EA1637B5EB08056EEB43
:10040000070C870E920E47EA811742EA8312A7FB78
:100410000201B6EB0B0164EB00042B0D43EA0C3335
:100420005E1844EB1C50DA465146E7FB0201C5F367
:1004300013044FEA0B3343EA14534FEA0432019C8E
:1004400043EA0603A4F10C040294009CCDE900B435
:1004500000F0F8F803B0BDE8F08F00200146F9E79E
:100460002DE9F04D81EA030404F0004B21F0004532
:1004700014464FF0000A23F0004150EA050220D054
:1004800054EA01021DD0C5F30A570246C5F313030F
:10049000C1F31300C1F30A5640F4801543F48013EE
:1004A000A7EB0608101BD64608F2FD3873EB0500D3
:1004B00002D308F1010801E092185B41B8F1000F86
:1004C00003DA00200146BDE8F08D00204FF48011D2
:1004D000064684460EE0171B73EB050705D3121B77
:1004E00063EB050306434CEA010C49084FEA300070
:1004F00092185B4150EA0107EDD152EA030012D095
:1005000082EA040083EA0501084305D0101BAB41D1
:1005100006D20122002306E000224FF0004302E051
:100520006FF0010253101AEB06004CEB085110EB70
:100530000A0041EB0B01BDE8F04D00F074B8C1F3C7
:100540000A52C1F3130140F2FF3341F480119A4281
:1005500002DA00200146704740F233439A42A2F289
:10056000334202DC524200F03CB800F02BB80000ED
:1005700030B5041E71F1000404DB4FF0004440422A
:1005800064EB0101141E73F1000405DB1C464FF0FF
:100590000043524263EB0403994208BF904230BDCE
:1005A000064C074D06E0E06840F0010394E80700C0
:1005B00098471034AC42F6D3FFF79CFD702D00082D
:1005C000902D0008202A04DB203A00FA02F10020D6
:1005D00070479140C2F1200320FA03F31943904081
:1005E0007047202A04DB203A21FA02F000217047EC
:1005F00021FA02F3D040C2F120029140084319468B
:100600007047202A06DBCB17203A41FA02F043EA72
:10061000E07306E041FA02F3D040C2F120029140BB
:1006200008431946704710B5141E73F1000408DA28
:10063000401C41F1000192185B411A4301D120F0A6
:10064000010010BD2DE9F04D92469B4611B1B1FA63
:1006500081F202E0B0FA80F220329046FFF7B2FF5A
:1006600004460F4640EA0A0041EA0B0153465A4647
:10067000084313D0114653EA010019D0C8F14002D3
:100680005046FFF7AEFF05460E46504659464246D5
:10069000FFF798FF084305D0012004E020463946C3
:1006A000BDE8F08D0020054346EAE0762C43374351
:1006B0000A986305E40AA0EB08000022FD0A44EA58
:1006C00047540A3002D500200146E9E70105101918
:1006D0006941DDE9084500196941BDE8F04DA2E72F
:1006E00070B58C1810F8015B15F0070301D110F8F4
:1006F000013B2A1106D110F8012B03E010F8016B21
:1007000001F8016B5B1EF9D12B0705D40023521EA3
:100710000DD401F8013BFAE710F8013BCB1A921C0B
:1007200003E013F8015B01F8015B521EF9D5A14209
:10073000D8D3002070BD00BFFEE7000010B5002434
:100740001548006820F00F0013490860084600684B
:1007500040F00800086004E0601CC4B2012000F012
:10076000CCF80E48006808B1642CF5DB642C01DB82
:10077000012010BD002404E0601CC4B2012000F080
:10078000BCF80648006808B9642CF5DB642C01DB72
:100790000120EEE70020ECE70008014000012142C3
:1007A00008B50121042000F089FD0120ADF800000A
:1007B00010208DF8030003208DF8020069460648DA
:1007C00000F0B2F80121044800F03BF900F068F8AD
:1007D000FFF7B4FF08BD00000008014010B5002479
:1007E00004E0601CC4B2012000F087F80D480068E6
:1007F00008B1642CF5DB002404E0601CC4B20120C5
:1008000000F07BF80748006808B9642CF5DB282065
:1008100000F073F80348006808B1012010BD002003
:10082000FCE700000001214270B50024002506E02D
:100830006006040EFFF7D2FF0443681CC5B2082D02
:10084000F6DB204670BD7CB505460E4600F028F864
:10085000FFF774FFF8B9002405E0FFF7E5FF0DF896
:100860000400601CC4B2052CF7DB9DF800009DF865
:10087000011008449DF8021008449DF80310084434
:100880009DF80410884208D19DF8000030709DF852
:100890000200287001E001207CBD0020FCE7000080
:1008A00010B50C48006820F00F000A49086008469F
:1008B000006840F003000860002007490860142029
:1008C00000F00FF801200549C1F880011E2000F05A
:1008D00014F810BD000801408001214200002142AF
:1008E000704700B5034603E04FF47A7000F005F856
:1008F000181EA3F10103F7D100BD00EBC001C90030
:100900004FF0E0225161002191610521116100BF8A
:100910004FF0E021096901F480310029F8D0042169
:100920004FF0E022116170472DE9F04102460025A9
:100930000026002000230024002791F803C00CF0BB
:100940000F0591F803C00CF0100CBCF1000F03D0A0
:1009500091F802C04CEA050591F800C0BCF1000F07
:1009600031D0146800202BE04FF0010C0CFA00F39A
:10097000B1F800C00CEA03069E4220D183004FF07C
:100980000F0C0CFA03F7BC4305FA03FC4CEA040411
:1009900091F803C0BCF1280F06D14FF0010C0CFAFE
:1009A00000FCC2F814C00AE091F803C0BCF1480F83
:1009B00005D14FF0010C0CFA00FCC2F810C0401C2D
:1009C0000828D1D31460B1F800C0BCF1FF0F34DDAA
:1009D000546800202EE000F1080C4FF0010808FADE
:1009E0000CF3B1F800C00CEA03069E4221D183004B
:1009F0004FF00F0C0CFA03F7BC4305FA03FC4CEA6A
:100A0000040491F803C0BCF1280F05D100F1080CD3
:100A100008FA0CF8C2F8148091F803C0BCF1480F32
:100A200007D100F1080C4FF0010808FA0CF8C2F8E1
:100A30001080401C0828CED35460BDE8F08141618D
:100A400070470161704700BFFEE770B502460024A1
:100A5000002500230020958A138B1B0445EA03061A
:100A600026F07F4404EA01068E4201D1012000E015
:100A7000002070BD21B1028842F00102028004E032
:100A800002884FF6FE731A400280704700B585B0A9
:100A90000121480500F0F2FB0121082000F00EFCC6
:100AA000C020ADF8000003208DF802001C208DF856
:100AB000030069461148FFF737FF114800F024F89A
:100AC0000020ADF808004BF6FF70ADF80A003020AA
:100AD000ADF80C004FF48060ADF80E000001ADF8E9
:100AE00010000848019001210548FFF7C3FF01A944
:100AF000034800F05BF805B000BD0000000C0140A9
:100B000000540040801A060010B504460B48844289
:100B100009D10121480500F0C1FB00214FF400106C
:100B200000F0BCFB08E00121880500F0B7FB0021C4
:100B30004FF4800000F0B2FB10BD000000540040F4
:100B400021B1028842F48072028004E002884FF6EC
:100B5000FF631A400280704721B1028842F400729C
:100B6000028004E002884FF6FF531A40028070476B
:100B70000CB50246002000230193009300920B0F56
:100B8000019321F07F41019B1BB1009B1433009323
:100B900003E0090C009B18330093009B1B680B407B
:100BA0000BB1012000E000200CBD00002DE9F04356
:100BB00085B004460D460026B1460427DFF8CC80F8
:100BC000A6884FF6C0700640684600F087FBDDF847
:100BD00008802F48B8FBF0F01FFA80F946EA0906B2
:100BE000A68020884FF6FE71084020800026294903
:100BF000286888420CD828684000B8FBF0F087B21B
:100C0000042F00DA04273E4309F10100208427E085
:100C1000E8884BF6FF71884206D1286800EB400057
:100C2000B8FBF0F087B209E0286800EBC00101EBE7
:100C30000010B8FBF0F087B247F48047C7F30B0011
:100C400008B947F0010747F4004006434FF4967097
:100C500009FB00F04FF47A7190FBF1F0401C208406
:100C6000A683208840F00100208026884FF6F530CA
:100C70000640A8886989084306432680A8892989EF
:100C80000843208105B0BDE8F083000000127A001F
:100C900040420F00A086010012B141F0010102E0C4
:100CA0004FF6FE73194001827047018270470000C1
:100CB00070B504460D4600BF4FF400311C48FFF7E5
:100CC00057FF0028F8D101211948FFF739FF00BF6D
:100CD00018491748FFF7B9FE0028F9D000227821FB
:100CE0001348FFF7D9FF00BF13491148FFF7ADFEC6
:100CF0000028F9D021460E48FFF7D7FF00BF0E4964
:100D0000891C0B48FFF7A1FE0028F8D029460848A7
:100D1000FFF7CBFF00BF0849891C0548FFF795FE88
:100D20000028F8D001210248FFF716FF70BD00002F
:100D300000540040010003008200070008B50121B3
:100D4000102000F0BBFA10208DF803004002ADF82F
:100D5000000003208DF8020069460448FFF7E4FD17
:100D60004FF400510148FFF76CFE08BD0010014030
:100D700000BFFEE77047000070B5002100230F227E
:100D8000C47804B3154C246804F4E064C4F5E0644A
:100D9000210AC1F10403CA40447804FA03F18478BB
:100DA0001440214309010E4C0678A155047804F043
:100DB0001F050124AC4005786D11AD0005F1E0255B
:100DC000C5F8004109E0047804F01F050124AC4097
:100DD000044D0678761145F8264070BD0CED00E014
:100DE00000E400E080E100E002490143024A1160B2
:100DF000704700000000FA050CED00E070B50646F3
:100E0000002415E004F1B001C8B200F070FD00202C
:100E100000F06DFD102000F06AFD002504E0304672
:100E200000F06CFD681CC5B2802DF8DB601CC4B2FC
:100E3000082CE7DB70BD10B56420FFF752FDAE2033
:100E400000F055FD202000F052FD102000F04FFD75
:100E5000B02000F04CFDC82000F049FD402000F01B
:100E600046FD812000F043FDFF2000F040FDA12061
:100E700000F03DFDA62000F03AFDA82000F037FD6F
:100E80003F2000F034FDA42000F031FDD32000F01D
:100E90002EFD002000F02BFDD52000F028FDF020D5
:100EA00000F025FDD92000F022FD222000F01FFDDA
:100EB000DA2000F01CFD122000F019FDDB2000F00C
:100EC00016FD202000F013FD8D2000F010FD1420F1
:100ED00000F00DFDAF2000F00AFD10BD10B5024678
:100EE000012000E050430B1EA1F10104E1B2F9D151
:100EF00010BD70B504460D4605F1B001C8B200F052
:100F0000F6FC102141EA141000F0F1FC04F00F018E
:100F100041F0010000F0EBFC70BD00002DE9F04154
:100F200080460E46174600247D0131464046FFF7B5
:100F3000E0FF00BF06E00D49485D00F0DFFC6D1CDE
:100F4000601CC4B2102CF6DB701CC1B24046FFF727
:100F5000D0FF002406E00549485D00F0CFFC6D1C81
:100F6000601CC4B2102CF6DBBDE8F0811A00002032
:100F70002DE9F04707460E4690469946A8F1200015
:100F8000C5B2B9F1010F03D0B9F1020F40D117E09A
:100F90007E2F02DD0027701CC6B231463846FFF7AF
:100FA000A8FF002409E005EB45011B4A02EB4101C3
:100FB000085D00F0A3FC601CC4B2062CF3DB27E044
:100FC000782F02DD0027701CC6B231463846FFF785
:100FD00090FF002407E004EB0511104A505C00F07C
:100FE0008DFC601CC4B2082CF5DB701CC1B2384605
:100FF000FFF77FFF002408E004EB05110831074AE2
:10100000505C00F07BFC601CC4B2082CF4DB00BF19
:1010100000BFBDE8F08700004825000870270008E1
:101020002DE9F05F0646894690461F46DDF828A068
:101030004FF0000BBAF1010F03D0BAF1020F54D1F7
:1010400029E0002424E0381B401EC1B20A20FFF72B
:1010500045FFB8FBF0F00A21B0FBF1F201FB1205ED
:101060004DB9082101FB0461C8B201233022494671
:10107000FFF77EFF0AE005F13001CAB2082101FB4B
:101080000461C8B201234946FFF772FF601CC4B275
:10109000BC42D8DB29E0002424E0381B401EC1B24A
:1010A0000A20FFF71BFFB8FBF0F00A21B0FBF1F2BA
:1010B00001FB12054DB9082101FB0461C8B20223EE
:1010C00030224946FFF754FF0AE005F13001CAB269
:1010D000082101FB0461C8B202234946FFF748FF1B
:1010E000601CC4B2BC42D8DB00BF00BFBDE8F09FAB
:1010F00010B5002203212C480078FFF70FFF2A4982
:1011000009781031C8B202220321FFF707FF2649F0
:1011100009782031C8B2022324A2032100F048F844
:10112000214909783E31C8B203221146FFF7F6FE85
:10113000012206211C480078FFF7F0FE1A490978C1
:101140001031C8B202220621FFF7E8FE16490978DD
:101150002031C8B2022315A2062100F029F8124955
:1011600009783E31C8B204220621FFF7D7FE0522D6
:1011700000211046FFF7D2FE062200211520FFF7BE
:10118000CDFE022309A20021252000F011F8022340
:1011900006A20021422000F00BF8022303A2002146
:1011A0005A2000F005F810BDFA0400203A000000B3
:1011B0002DE9F0470646884617469A464FF0000943
:1011C00000240025BAF1010F03D0BAF1020F50D16B
:1011D00017E012E0785D203800F0FF097E2E04DD74
:1011E000002608F1010000F0FF0841463046FFF7F5
:1011F00080FEB01DC6B2681CC5B2785D0028E9D17A
:1012000037E032E0785D203800F0FF09782E04DD09
:10121000002608F1010000F0FF0841463046FFF7C4
:1012200068FE002407E004EB0911134A505C00F04B
:1012300065FB601CC4B2082CF5DB08F10100C1B2EB
:101240003046FFF756FE002408E004EB0911083190
:10125000094A505C00F052FB601CC4B2082CF4DB5D
:1012600006F10800C6B2681CC5B2785D0028C9D175
:1012700000BF00BFBDE8F0877027000829B1064A0B
:10128000D2690243044BDA6104E0034AD269824323
:10129000014BDA61704700000010024029B1064A94
:1012A00012690243044B1A6104E0034A1269824343
:1012B000014B1A61704700000010024029B1064A34
:1012C00092690243044B9A6104E0034A92698243A3
:1012D000014B9A61704700000010024030B50021B8
:1012E0000022002400232D4D6D6805F00C0121B172
:1012F000042905D0082923D105E0294D056022E005
:10130000274D05601FE0254D6D6805F47012234DD3
:101310006D6805F48034022505EB92421CB9214D1D
:10132000554305600BE01D4D6D6805F400351DB19A
:101330001C4D5543056002E0194D5543056002E020
:10134000174D056000BF00BF144D6D6805F0F0013A
:101350000909154D6B5C0568DD4045600F4D6D68F2
:1013600005F4E061090A104D6B5C4568DD4085605D
:101370000A4D6D6805F46051C90A0B4D6B5C4568F8
:10138000DD40C560054D6D6805F44041890B074D92
:101390006B5CC568B5FBF3F5056130BD001002401C
:1013A00000127A0000093D0000000020100000201B
:1013B0007047000000B587B001218803FFF77EFF6A
:1013C00001210420FFF77AFF18208DF81B004FF44D
:1013D0000070ADF8180003208DF81A0006A9214806
:1013E000FFF7A2FA48208DF81B004FF48060ADF89B
:1013F000180003208DF81A0006A91A48FFF794FA7E
:101400004FF4E13002900020ADF814000C20ADF84C
:1014100012000020ADF81000ADF80E00ADF80C0081
:1014200002A9114800F0ECF9012240F225510E48C2
:1014300000F0C0F94FF4A060FFF7D6FC25208DF82E
:10144000040001208DF807008DF805008DF80600D6
:1014500001A8FFF791FC0121034800F068F907B0EB
:1014600000BD000000080140003801400FB400B585
:101470009BB01DA8019002A8019A1C9900F046FAA1
:101480000020019002A800F013F81BB05DF814FBD7
:1014900010B504462146054800F023FA00BF80211C
:1014A000024800F050F90028F9D010BD0038014082
:1014B00070B50446002504E0605DFFF7E9FF681C95
:1014C000C5B2605D0028F7D170BD10B500F002F81C
:1014D00010BD00000CB5002001900090334800685A
:1014E00040F480303149086000BF3048006800F4A3
:1014F000003000900198401C0190009818B90198A4
:10150000B0F5A06FF1D12948006800F4003010B1A7
:101510000120009001E0002000900098012843D1B4
:101520002348006840F01000214908600846006820
:1015300020F0030008600846006840F002000860E0
:101540001A4840681949486008464068486008469B
:10155000406840F4806048600846406820F47C1091
:1015600048600846406840F4E81048600846006853
:1015700040F08070086000BF0C48006800F0007008
:101580000028F9D00948406820F003000749486066
:101590000846406840F00200486000BF03484068C9
:1015A00000F00C000828F9D10CBD0000001002402A
:1015B0000020024010B500F0EDFE10BD10B513483C
:1015C000006840F001001149086008464068104971
:1015D00008400E494860084600680E4908400B491B
:1015E00008600846006820F48020086008464068CB
:1015F00020F4FE0048604FF41F008860FFF765FF8D
:101600004FF000600449086010BD00000010024067
:101610000000FFF8FFFFF6FE08ED00E070B540F2B5
:101620002551344800F09CF8B8B1324800F054F924
:10163000C1B2314802780078401C2F4B18702F48F7
:10164000815418460078082802DB002019460870EB
:1016500040F22551274800F05BF840F2244125482C
:1016600000F07EF848B123480088C5B22148001D2B
:101670000088C5B20120224908701F4805781F481C
:10168000407830381D490978303901EB810100EB91
:1016900041001C4908601948007930381749C97859
:1016A000303901EB810100EB4100164948601348D5
:1016B000C079303811498979303901EB810100EB6B
:1016C00041001049886000240DE00C48015D0EA027
:1016D000FFF7CCFE00BF0748008800F0400000285C
:1016E000F9D0601CC4B2AC42EFDB0020074908808F
:1016F00070BD0000003801401500002048050020A2
:10170000140000203C050020256300001800002084
:1017100010B50022002340F66A14A14200D100BF98
:101720000A1201249440A3B2DC43048010BD21B10D
:10173000828942F40052828104E082894DF6FF736F
:101740001A408281704702460020B1F5007F00D127
:1017500000BF13880B400BB1012000E00020704750
:1017600070B50246002400230025002040F66A16CA
:10177000B14200D100BFC1F3421501F01F030126A1
:1017800006FA03F3012D02D19689334006E0022DBB
:1017900002D1168A334001E0968A33400C120126AA
:1017A00006FA04F41688344013B10CB1012000E0AD
:1017B000002070BDF0B5034600240026002500205F
:1017C00040F66A17B94200D100BF1846C1F342146F
:1017D00001F01F06012707FA06F5012C01D10C3094
:1017E00004E0022C01D1103000E014301AB1076877
:1017F0002F43076002E00768AF430760F0BD0000B9
:101800002DE9F04786B005460E460024A24600BFEB
:10181000A1460027B08900B100BF2F462C8A4CF6A4
:10182000FF700440F08804432C82AC894EF6F3101C
:101830000440B08831890843718908430443AC816E
:10184000AC8A4FF6FF400440B0890443AC8201A843
:10185000FFF744FD1F48874202D1DDF810A001E0E8
:10186000DDF80CA0A88900F4004040B10AEBCA00E2
:1018700000EB0A1031684900B0FBF1F807E00AEB11
:10188000CA0000EB0A1031688900B0FBF1F864204F
:10189000B8FBF0F004012009642101FB1089A8893C
:1018A00000F4004040B1322000EBC900B0FBF1F081
:1018B00000F00700044308E0322000EB0910642127
:1018C000B0FBF1F000F00F0004432C8106B0BDE83E
:1018D000F08700000038014001468888C0F3080006
:1018E0007047C1F308028280704700BFFEE710B561
:1018F000044621460020FFF7DBF910BD10B5044671
:1019000021464020FFF7D4F910BD000037B514463A
:101910000846064B6A46214600F0DCF80446694654
:10192000002000F05AFC20463EBD0000DB210008EC
:1019300002E008C8121F08C1002AFAD17047704798
:10194000002001E001C1121F002AFBD170470000F6
:101950002DE9FF5F82B00021DDE90430020DDDF8E2
:1019600040B0034318D044F61050A2F2FF32424375
:101970001514119801281FD0A5EB0B00401C5FEA3D
:10198000000A4FF000064E4FDFF83891B04650463F
:1019900015D5CAF1000413E0119801244AA30128C7
:1019A00001D16FEA0B010298119AC0E90031C0E938
:1019B000024206B0BDE8F09FCBF10000DFE704462D
:1019C0000021404A491842EB0450CDE9001012E0D2
:1019D000E00707D032463B4640464946FEF7CEFC7C
:1019E0008046894632463B4610461946FEF7C6FCFD
:1019F00006460F466410002CEAD1DDE90401DDE95A
:101A00000023BAF1000F06DAFEF7B8FC42464B4657
:101A1000FEF7B4FC05E0FEF723FD42464B46FEF719
:101A20001FFD04460E460022284BFEF7A1FD03D8F9
:101A30004FF0FF30014607E00022254B204631469B
:101A4000FEF7F5FBFEF77BFD102409E0002C0ADB16
:101A50000A220023FEF7BAFB039B30321A55641E9C
:101A600050EA0102F2D1641C039AC4F11103144438
:101A7000119A012A03D0012208430DD10AE008433C
:101A800004D000204FF0110B119072E7A3EB0B056F
:101A90006D1E0DE05B4504DD4FF0000205F1010510
:101AA00004E003DA4FF00002A5F10105002AECD0B2
:101AB00002981199C0E90231C0E9004579E70000B8
:101AC000000014400000F03F300000000000F04330
:101AD0000000E03F2DE9FF4F95B09A468846064644
:101AE0000025EEE1252877D100242746F94A012177
:101AF000039400E0044316F8013F203B01FA03F091
:101B00001042F7D130782A2811D06FF02F033078A7
:101B1000A0F13002092A16D8039A44F0020402EB1D
:101B2000820203EB42021044761C0390EFE758F860
:101B3000042B0392002A03DA504244F40054039029
:101B400044F00204761C30782E2816D116F8010FC6
:101B500044F004042A280DD06FF02F023078A0F151
:101B60003003092B09D807EB870302EB4303C7189F
:101B7000761CF3E758F8047B761C30786C280FD07D
:101B800006DC4C2817D068280DD06A2814D104E050
:101B9000742810D07A280FD10DE044F400140AE024
:101BA00044F4801401E044F440147278824202D17B
:101BB00004F58014761C761C307866280BD013DC74
:101BC000582877D009DC002875D04528F6D046285B
:101BD000F4D047281AD193E118E0632835D064285F
:101BE00079D0652812D18BE1702873D008DC672882
:101BF000F1D069286FD06E280DD06F2806D1ACE0E7
:101C000073282CD0752874D0782853D05246179951
:101C100090476D1C54E1C4F30250022809D00328F8
:101C20000DD0D8F8001004280DD00D6008F104087C
:101C300046E1D8F80010EA17C1E90052F6E7D8F8F3
:101C400000100D80F2E70D70F0E718F8041B8DF816
:101C5000001000208DF80100EB46012003E058F849
:101C600004BB4FF0FF3061074FF0000102D40DE0DC
:101C700009F101018946B9420FDA8145F8DB1BF809
:101C800009100029F4D108E009F1010189468142D7
:101C9000FADB1BF809100029F6D103985346A0EB94
:101CA000090721463846179A00F080FA284400EBCD
:101CB000090507E044E008E10DE01BF8010B52467E
:101CC00017999047B9F10109F7D253462146384692
:101CD000179AF2E039E00A21C4F302524FF0000BE8
:101CE0000091022A06D058F8040BC117032A09D024
:101CF0000AE023E008F1070020F00702F2E8020101
:101D0000904605E000B2C117042A01D140B2C117C4
:101D1000002906DA0A460021404261EB02012D2229
:101D200002E0220504D52B228DF80420012203E0D5
:101D3000E20701D02022F7E7914657E00A2100E0B0
:101D400010214FF0000B00910BE010214FF0000B21
:101D500044F004040827009103E008204FF0000B32
:101D60000090C4F30252022A05D058F8040B002157
:101D7000032A08D008E008F1070020F00702F2E883
:101D80000201904603E080B2042A00D1C0B24FF0B5
:101D9000000922072AD53278702A07D0DDF800C062
:101DA0008CF0100C5CEA0B0C05D00EE040228DF894
:101DB0000420012208E050EA010306D030238DF808
:101DC00004308DF8052002229146009B83F0080321
:101DD00053EA0B030AD150EA010201D1620705D58B
:101DE00030228DF804204FF001097F1E3278582AE6
:101DF00004D039A20C920CAA02920BE03BA2F9E7A4
:101E00005B46009AFEF7E2F90C9B9B5C029A521E1D
:101E10000292137050EA0102F2D1029804A9081A42
:101E200000F1200B600702D524F4803400E0012784
:101E30005F4502DDA7EB0B0000E0002000EB0B018B
:101E4000009003984944401A0390E00306D4534697
:101E50002146179A039800F0A9F90544002706E0E7
:101E600001A85246C05D179990476D1C7F1C4F45D5
:101E7000F6DBE0030CD553462146179A039800F091
:101E800095F9054404E030205246179990476D1C9F
:101E90000099481E00900029F5DC08E0029802999C
:101EA00052460078491C0291179990476D1CBBF16E
:101EB0000001ABF1010BF1DC5BE100F065F90544D9
:101EC000761C307800287FF40DAE19B02846BDE8A6
:101ED000F08F0000092801003031323334353637B5
:101EE0003839616263646566000000003031323366
:101EF0003435363738394142434445460000000006
:101F0000600700D4062708F1070020F00700F0E87A
:101F10000223804603F0004C5FEA0C0001D097A03A
:101F200009E0200501D596A005E0E00701D095A0C5
:101F300001E0AFF24C001390307823F000436528A5
:101F40000CD006DC452809D046281DD047287FD173
:101F50003BE0662818D067287AD136E00021112F9F
:101F600001DB112000E0781CCDE9000104A90CA8D8
:101F7000FFF7EEFCDDE90D010C9A4FF0000B07F1C5
:101F80000109109200914EE04FF000400097CDE91A
:101F9000011004A90CA8FFF7DBFCDDE90D020C9B86
:101FA0000F994FF0000B91461093009211B9791CD4
:101FB00000EB0109B7EB090003D4C0F1FF3B07F1C7
:101FC0000109A9EB0700019042E0012F00DA012787
:101FD0000021112F01DD112000E03846CDE900017C
:101FE00004A90CA8FFF7B4FCDDE90D010C9A0091DF
:101FF0004FF0000BB946109221070FD4009A4A45C2
:1020000003DA914601E0A9F10109B9F1010F05DDFB
:10201000109AA9F10101515C3029F4D0B84202DADA
:1020200010F1040F03DA0121CDE9011010E00028BE
:1020300003DC8344A9EB000102E0411C494500DDBB
:102040008946A0EB0B00401C01904FF0004002902D
:10205000200705D40198484502DB4FF0FF3001907E
:1020600000208DF84B0002980DF14B07B0F1004FA6
:1020700025D002200C902B200D90029800280CDA1D
:10208000404202902D200D9007E00A210298FEF7B1
:1020900087F83031029007F8011D0C99481E0C900A
:1020A0000029F2DC02980028EFD1791E0D98087003
:1020B000307800F0200040F0450007F8020D11A82C
:1020C000C01BC01D02901398007800B1012000EBE6
:1020D0000901019801EBE071029801440398401A4C
:1020E000401E0390E00306D453462146179A0398F6
:1020F00000F05CF805441398007818B1524617991F
:1021000090476D1CE00323D553462146179A039848
:1021100000F04CF805441BE0BBF1000F07DB009812
:10212000584504DD1098179910F80B0001E0179935
:1021300030205246904701980BF1010B401E05F1EB
:102140000105019004D12E205246179990476D1C2D
:10215000B9F10001A9F10109DEDC05E017F8010B76
:102160005246179990476D1C0299481E029000290B
:10217000F4DC53462146179A03989EE62D00000092
:102180002B000000200000002DE9F041044600254E
:102190001E461746880404D405E039462020B0477F
:1021A0006D1C641EF9D52846BDE8F0812DE9F0418B
:1021B000044600251E469046C80301D5302700E09E
:1021C0002027880404D505E041463846B0476D1CF9
:1021D000641EF9D52846BDE8F0810A68531C0B60DF
:1021E000107070470EB5002002900190FFF7E2F8E2
:1021F000FEF7A4FDFEF74AFCFEF7D2FAFEF71BFE3F
:102200000020FEF7FBFDFEF773FF67E00220009061
:1022100033480223002102683220FEF701FF02202A
:1022200000902F480223002142684A20FEF7F8FE62
:10223000022000902A480223002182686220FEF7D3
:10224000EFFE27488068401C254988600846806862
:102250003B2815DD0020886008464068401C486027
:10226000084640683B280BDD0020486008460068AF
:10227000401C086008460068172801DD002008603F
:102280004FF400511748FEF7DCFB4FF4C870FEF71F
:1022900028FB4FF400511348FEF7D1FB4FF4C870F0
:1022A000FEF71FFB01A902A8FEF7CDFA02200E4996
:1022B000009009782A31C8B202239DF80820032132
:1022C000FEF7AEFE02200849009009782A31C8B214
:1022D00002239DF804200621FEF7A2FE96E70000E7
:1022E0003C05002000100140FA0400200948006865
:1022F000006808B9012000E0002020B14FF0FF3055
:102300000549086005E003480068C06800680249A4
:1023100008607047000500202C0500201848006860
:1023200018B101201749086028E00020154908600D
:102330001548016800E0491E01EB8100134A52F87C
:10234000200008B9012000E000200028F3D101EBB3
:1023500081020E4B03EB820042685268426000F13A
:1023600008024368934202D1426852684260426860
:10237000D268074B1A600448016000BF7047000034
:1023800038050020200500201405002074060020D8
:10239000FC04002010B5FDF7C9FE044600F00CF85F
:1023A00018B14FF08050034908602046FDF7C2FE87
:1023B00010BD000004ED00E02DE9F0410027574872
:1023C000006800287DD156480068451C54480560C7
:1023D0008DB95448D0F800805348006851490860CE
:1023E0005148C0F8008051480068401C4F490860BF
:1023F000FFF77CFF00BF4E480068854275D300BFE1
:1024000048480068006808B9012000E0002020B1B9
:102410004FF0FF304649086066E042480068C068F7
:10242000C4686668B54202D2414806605CE06069F3
:10243000D4E902128A60D4E902214A60211D42686F
:102440008A4201D1E1684160002262610168491E4F
:102450000160A06A98B1A06AD4E907128A60D4E941
:1024600007214A6004F1180142688A4201D1216AB9
:1024700041600022A2620168491E016000BF2D492F
:10248000E06A0968884202D92A49E06A0860E16A7C
:1024900001EB8101284A02EB81014868A060826853
:1024A000E260211D826851608160E16A01EB810177
:1024B000214A02EB81026261E16A01EB81011E4A5D
:1024C00000E022E052F82110491CE26A02EB82028D
:1024D000194B43F822101949E06A0968C96A884211
:1024E0008ED901278CE700E000BF14480068C06A5D
:1024F00000EB8000104951F82000012800D9012785
:102500000F48006800B1012704E00E480068401C35
:102510000C4908603846BDE8F0810000380500200D
:1025200010050020000500200405002024050020DF
:102530002C0500201405002074060020FC04002057
:10254000200500201C050020000000000000000005
:10255000002F000000000700070000147F147F1404
:1025600000242A7F2A12006264081323003649558A
:10257000225000000503000000001C224100000062
:1025800041221C000014083E08140008083E0808F8
:10259000000000A060000008080808080000606053
:1025A0000000002010080402003E5149453E000092
:1025B000427F4000004261514946002141454B3174
:1025C000001814127F10002745454539003C4A4940
:1025D00049300001710905030036494949360006B2
:1025E0004949291E0000363600000000563600001A
:1025F0000008142241000014141414140000412295
:10260000140800020151090600324959513E007C6C
:102610001211127C007F49494936003E4141412256
:10262000007F4141221C007F49494941007F09093F
:102630000901003E4149497A007F0808087F0000EF
:10264000417F4100002040413F01007F08142241AA
:10265000007F40404040007F020C027F007F040862
:10266000107F003E4141413E007F09090906003EBE
:102670004151215E007F09192946004649494931E7
:102680000001017F0101003F4040403F001F20400A
:10269000201F003F4038403F0063140814630007C8
:1026A0000870080700615149454300007F4141001F
:1026B00000552A552A55000041417F0000040201BF
:1026C000020400404040404000000102040000209D
:1026D00054545478007F48444438003844444420DB
:1026E00000384444487F00385454541800087E0988
:1026F00001020018A4A4A47C007F08040478000050
:10270000447D4000004080847D00007F102844000C
:102710000000417F4000007C04180478007C08041D
:10272000047800384444443800FC24242418001859
:10273000242418FC007C0804040800485454542045
:1027400000043F444020003C4040207C001C2040CE
:10275000201C003C4030403C004428102844001C11
:10276000A0A0A07C004464544C4414141414141409
:102770000000000000000000000000000000000059
:10278000000000F8000000000000003330000000EE
:1027900000100C06100C06000000000000000000F5
:1027A00040C07840C0784000043F04043F04040067
:1027B000007088FC08300000001820FF211E000077
:1027C000F008F000E018000000211C031E211E008C
:1027D00000F00888700000001E2123241927211012
:1027E00010160E00000000000000000000000000B5
:1027F000000000E01804020000000007182040005C
:1028000000020418E000000000402018070000004B
:10281000404080F0804040000202010F01020200AF
:10282000000000F0000000000101011F0101010093
:10283000000000000000000080B0700000000000F8
:102840000000000000000000000101010101010181
:102850000000000000000000003030000000000018
:1028600000000000806018040060180601000000ED
:1028700000E010080810E000000F102020100F00EA
:10288000001010F8000000000020203F2020000071
:1028900000700808088870000030282422213000C9
:1028A00000300888884830000018202020110E00D1
:1028B0000000C02010F8000000070424243F24007A
:1028C00000F80888880808000019212020110E004F
:1028D00000E0108888180000000F112020110E0061
:1028E00000380808C83808000000003F0000000059
:1028F0000070880808887000001C222121221C001A
:1029000000E010080810E0000000312222110F0042
:10291000000000C0C00000000000003030000000D7
:102920000000008000000000000080600000000047
:102930000000804020100800000102040810200060
:1029400040404040404040000404040404040400AB
:102950000008102040800000002010080402010040
:10296000007048080808F000000000303601000040
:10297000C030C828E810E0000718272423140B00F3
:102980000000C038E0000000203C2302022738206D
:1029900008F8888888700000203F202020110E0051
:1029A000C030080808083800071820202010080048
:1029B00008F808080810E000203F202020100F0031
:1029C00008F88888E8081000203F202023201800FD
:1029D00008F88888E8081000203F20000300000065
:1029E000C03008080838000007182020221E020006
:1029F00008F808000008F808203F210101213F20C5
:102A0000000808F8080800000020203F20200000EF
:102A100000000808F8080800C08080807F000000DF
:102A200008F888C028180800203F20012638200018
:102A300008F8080000000000203F2020202030007F
:102A400008F8F800F8F80800203F003F003F200099
:102A500008F830C00008F808203F200007183F00A1
:102A6000E01008080810E0000F10202020100F00D0
:102A700008F808080808F000203F210101010000C3
:102A8000E01008080810E0000F18242438504F0008
:102A900008F8888888887000203F2000030C3020C8
:102AA00000708808080838000038202121221C0006
:102AB000180808F8080818000000203F200000004F
:102AC00008F808000008F808001F202020201F0038
:102AD0000878880000C83808000007380E01000098
:102AE000F80800F80008F800033C0700073C030062
:102AF000081868808068180820302C03032C3020C8
:102B00000838C800C83808000000203F2000000036
:102B100010080808C838080020382621202018008E
:102B2000000000FE020202000000007F4040400062
:102B3000000C30C000000000000000010638C0009A
:102B400000020202FE000000004040407F00000042
:102B50000000040202020400000000000000000067
:102B60000000000000000000808080808080808065
:102B7000000202040000000000000000000000004D
:102B800000008080808000000019242222223F2043
:102B900008F8008080000000003F112020110E0086
:102BA0000000008080800000000E11202020110015
:102BB000000000808088F800000E112020103F20C7
:102BC0000000808080800000001F2222222213004B
:102BD000008080F0888888180020203F2020000096
:102BE0000000808080808000006B9494949360004B
:102BF00008F8008080800000203F210000203F2056
:102C000000809898000000000020203F2020000055
:102C1000000000809898000000C08080807F000045
:102C200008F8000080808000203F24022D30200022
:102C3000000808F8000000000020203F20200000CD
:102C40008080808080808000203F20003F20003FE7
:102C50008080008080800000203F210000203F20F5
:102C60000000808080800000001F202020201F00A6
:102C7000808000808000000080FFA12020110E00D5
:102C80000000008080808000000E112020A0FF80C6
:102C9000808080008080800020203F212000010073
:102CA00000008080808080000033242424241900C8
:102CB000008080E0808000000000001F20200000D5
:102CC0008080000000808000001F202020103F2016
:102CD000808080000080808000010E3008060100A6
:102CE00080800080008080800F300C030C300F004B
:102CF00000808000808080000020312E0E31200076
:102D0000808080000080808080818E7018060100A5
:102D100000808080808080000021302C22213000C3
:102D200000000000807C020200000000003F4040E4
:102D300000000000FF00000000000000FF00000095
:102D40000002027C800000000040403F00000000C4
:102D5000000601010202040400000000000000005F
:102D6000001CE018040830000000071820201000A4
:102D7000902D0008000000203C050000E00600083F
:102D8000682F00083C0500200406000040190008D8
:102D9000412D010203040460090607080902040624
:102DA00008251060028C2BFE920132FE180A0404E2
:102DB0007E01407E42427E024C427E4020491F7985
:102DC00020300C4448507F40407F50484440280900
:102DD000FC242424FC252624081204101040308FE3
:102DE00080844C55252525554C808080280906096E
:102DF00009E6F80C04020153041E2E071F30204080
:102E000001232010100860F0080808F8F05C8040EA
:102E10003092170121110C02011E1E212121333194
:102E200016FC848484FC2A10011BFF10311A3F0910
:102E30001A3F26450640807F14F801061EF0121244
:102E400012F26129A132FF161F1111111F49211021
:102E50000A03050911FF118905C312E012F072F887
:102E6000073D4428FF11AA44700B83013844829225
:102E7000927401831E7C44C7017D019905298D2927
:102E8000D39902818A010B013669419949FA0101FE
:102E9000A12A4001212A6D01212A600179150164CE
:102EA0002ADB010915072ADA01212AD801212AC0C3
:102EB000010915072A800101352A06010918071C96
:102EC000E66620076A86157A861C2A8601180A801B
:102ED000808686068686C0C00C0E1C0606D030761C
:102EE0004D2907013113601C12FE1301021009C4A1
:102EF0001820029E63B20E1DFF8181FFF244403014
:102F00000F12FF180923EAAABFAAEA033F0B012DFB
:102F1000BC808080080115240E0C082A010131496B
:102F2000041D81808081021901B917061101010970
:102F30000C0E0A14C0012178081E21404050215E69
:102F400008012A4DFFFFC1C10409232D101680FC82
:102F5000F3EFF3FC80FF80EEEEEEF5FBFF9CBEB6D8
:082F6000B688FF023919720462
:04000005080000ED02
:00000001FF
